:020000040800F2
:1000000000500020211E0008251D0008311D000899
:10001000371D00083D1D0008431D000800000000BA
:10002000000000000000000000000000491D000862
:10003000551D000800000000611D00086D1D00082E
:10004000691E0008691E0008691E0008691E000874
:10005000691E0008691E0008691E0008691E000864
:10006000691E0008691E0008691E0008691E000854
:10007000691E0008691E0008691E0008691E000844
:10008000691E0008691E0008691E0008691E000834
:10009000691E0008691E0008691E0008691E000824
:1000A0007D1D0008911D0008691E0008691E0008DA
:1000B000A51D0008691E0008691E0008691E0008C9
:1000C000691E0008691E0008691E0008691E0008F4
:1000D000691E0008691E0008691E0008691E0008E4
:1000E000691E0008691E0008691E00080000000063
:1000F0000000000000000000000000000000000000
:0C01000000000000000000005FF808F1A3
:10010C0010B5054C237833B9044B13B10448AFF345
:10011C0000800123237010BD24000020000000008B
:10012C00B41E000808B5034B1BB103490348AFF3D9
:10013C00008008BD0000000028000020B41E00084C
:10014C0080B500AF084A084B1B6843F010031360DE
:10015C00032000F01DF9002000F008F801F036FD36
:10016C000023184680BD00BF0020024080B582B03D
:10017C0000AF7860124B1A68124B1B7819464FF47B
:10018C007A73B3FBF1F3B2FBF3F3184600F035F9D5
:10019C000346002B01D001230EE07B680F2B0AD8FD
:1001AC00002279684FF0FF3000F0FDF8064A7B68BA
:1001BC001360002300E0012318460837BD4680BDBC
:1001CC0020000020040000200000002080B400AFBC
:1001DC00054B1B781A46054B1B681344034A1360E6
:1001EC0000BFBD4680BC70470400002040000020CA
:1001FC0080B400AF024B1B681846BD4680BC7047EC
:10020C004000002080B485B000AF78607B6803F0BC
:10021C000703FB600C4BDB68BB60BA684FF6FF034F
:10022C001340BB60FB681A02BB68134343F0BF6307
:10023C0043F40033BB60044ABB68D36000BF14377F
:10024C00BD4680BC704700BF00ED00E080B400AF3D
:10025C00044BDB681B0A03F007031846BD4680BC41
:10026C00704700BF00ED00E080B483B000AF0346E0
:10027C00FB71084997F907305B09FA7902F01F0204
:10028C00012000FA02F241F8232000BF0C37BD46D2
:10029C0080BC704700E100E080B483B000AF03463F
:1002AC003960FB7197F90730002B0BDA0D49FB799C
:1002BC0003F00F03043B3A68D2B21201D2B20B44E2
:1002CC001A7609E0084997F907303A68D2B2120158
:1002DC00D2B20B4483F8002300BF0C37BD4680BC60
:1002EC00704700BF00ED00E000E100E080B489B091
:1002FC0000AFF860B9607A60FB6803F00703FB613C
:10030C00FB69C3F10703042B28BF0423BB61FB6902
:10031C000433062B02D9FB69033B00E000237B610D
:10032C000122BB6902FA03F35A1EBB681A407B69AF
:10033C009A4001217B6901FA03F3591E7B680B403B
:10034C00134318462437BD4680BC704780B582B035
:10035C0000AF78607B68013BB3F1807F01D3012350
:10036C000FE00A4A7B68013B53600F214FF0FF30CE
:10037C00FFF792FF054B00229A60044B07221A608C
:10038C00002318460837BD4680BD00BF10E000E0D2
:10039C0080B582B000AF78607868FFF733FF00BF9C
:1003AC000837BD4680BD80B586B000AF0346B96046
:1003BC007A60FB7300237B61FFF748FF78617A68F2
:1003CC00B9687869FFF792FF024697F90F3011462A
:1003DC001846FFF761FF00BF1837BD4680BD80B5DA
:1003EC0082B000AF0346FB7197F907301846FFF750
:1003FC003BFF00BF0837BD4680BD80B582B000AF63
:10040C0078607868FFF7A2FF034618460837BD46A8
:10041C0080BD000080B483B000AF78607B68042B93
:10042C0006D1094A084B1B6843F00403136005E02E
:10043C00054A054B1B6823F00403136000BF0C37FF
:10044C00BD4680BC704700BF10E000E080B500AF37
:10045C0000F002F800BF80BD80B400AF00BFBD4605
:10046C0080BC704780B48BB000AF786039600023DB
:10047C00FB610023BB6100237B6100233B620023F3
:10048C003B6100237B6227E101227B6A02FA03F3C2
:10049C00FB613B681A68FB691340BB61BA69FB6975
:1004AC009A4240F016813B685B68122B34D0122BB9
:1004BC000DD8022B2BD0022B04D8002B31D0012BC2
:1004CC001CD048E0032B43D0112B1BD043E0874AB0
:1004DC00934226D0854A934206D8854A934220D02F
:1004EC00844A93421DD036E0834A934219D0834A02
:1004FC00934216D0824A934213D02CE03B68DB68BF
:10050C003B6228E03B68DB6804333B6223E03B68DA
:10051C00DB6808333B621EE03B68DB680C333B62F4
:10052C0019E03B689B68002B02D104233B6212E06C
:10053C003B689B68012B05D108233B627B68FA69F9
:10054C001A6108E008233B627B68FA695A6102E091
:10055C0000233B6200BFBB69FF2B01D87B6801E025
:10056C007B680433FB60BB69FF2B02D87B6A9B0062
:10057C0002E07B6A083B9B003B61FB681A680F2119
:10058C003B6901FA03F3DB431A40396A3B6901FA10
:10059C0003F31A43FB681A603B685B6803F08053F3
:1005AC00002B00F09680574A564B9B6943F0010391
:1005BC009361544B9B6903F00103BB60BB68524AC7
:1005CC007B6A9B08023352F823307B617B6A03F011
:1005DC0003039B000F2202FA03F3DB437A691340F7
:1005EC007B617B68494A934213D07B68484A9342AB
:1005FC000DD07B68474A934207D07B68464A9342AA
:10060C0001D1032306E0042304E0022302E00123CA
:10061C0000E000237A6A02F00302920093407A69A8
:10062C0013437B6138497B6A9B0802337A6941F832
:10063C0023203B685B6803F48033002B06D03749DA
:10064C00364B1A68BB6913430B6006E03349334BD6
:10065C001A68BB69DB4313400B603B685B6803F4AF
:10066C000033002B06D02D492C4B5A68BB69134321
:10067C004B6006E02949294B5A68BB69DB431340A0
:10068C004B603B685B6803F48013002B06D0234956
:10069C00224B9A68BB6913438B6006E01F491F4BC2
:1006AC009A68BB69DB4313408B603B685B6803F45F
:1006BC000013002B06D01949184BDA68BB69134399
:1006CC00CB6006E01549154BDA68BB69DB43134078
:1006DC00CB607B6A01337B627B6A0F2B7FF6D4AED7
:1006EC0000BF2C37BD4680BC704700BF00002110F6
:1006FC000000111000001210000031100000321028
:10070C0000002210001002400000014000080140CF
:10071C00000C014000100140001401400004014095
:10072C0080B485B000AF78600B467B807B689A689C
:10073C007B881340002B02D00123FB7301E00023C4
:10074C00FB73FB7B18461437BD4680BC704780B4E6
:10075C0083B000AF78600B467B8013467B707B7850
:10076C00002B03D07A887B681A6103E07B881A041B
:10077C007B681A6100BF0C37BD4680BC7047000017
:10078C0080B586B000AF786000233B617B681B6846
:10079C0003F00103002B00F08780924B5B6803F0A1
:1007AC000C03042B0CD08F4B5B6803F00C03082B51
:1007BC0012D18C4B5B6803F48033B3F5803F0BD1C3
:1007CC00884B1B6803F40033002B6CD07B685B6890
:1007DC00002B68D101232DE27B685B68B3F5803F69
:1007EC0006D1804A7F4B1B6843F4803313602EE0A4
:1007FC007B685B68002B0CD17A4A7A4B1B6823F41C
:10080C0080331360774A774B1B6823F48023136083
:10081C001DE07B685B68B3F5A02F0CD1714A714B5E
:10082C001B6843F4802313606E4A6E4B1B6843F4C1
:10083C00803313600BE06B4A6A4B1B6823F48033E4
:10084C001360684A674B1B6823F4802313607B6832
:10085C005B68002B13D0FFF7CBFC386108E0FFF787
:10086C00C7FC02463B69D31A642B01D90323E1E18F
:10087C005C4B1B6803F40033002BF0D014E0FFF743
:10088C00B7FC386108E0FFF7B3FC02463B69D31AAA
:10089C00642B01D90323CDE1524B1B6803F40033C5
:1008AC00002BF0D100E000BF7B681B6803F0020353
:1008BC00002B63D04B4B5B6803F00C03002B0BD06D
:1008CC00484B5B6803F00C03082B1CD1454B5B6851
:1008DC0003F48033002B16D1424B1B6803F0020348
:1008EC00002B05D07B681B69012B01D00123A1E1F2
:1008FC003C493C4B1B6823F0F8027B685B69DB00CE
:10090C0013430B603AE07B681B69002B20D0364BFD
:10091C0001221A60FFF76CFC386108E0FFF768FCF5
:10092C0002463B69D31A022B01D9032382E12D4BDA
:10093C001B6803F00203002BF0D02A49294B1B68DB
:10094C0023F0F8027B685B69DB0013430B6015E056
:10095C00254B00221A60FFF74BFC386108E0FFF7CB
:10096C0047FC02463B69D31A022B01D9032361E1F0
:10097C001C4B1B6803F00203002BF0D17B681B6837
:10098C0003F00803002B39D07B689B69002B19D02E
:10099C00164B01221A60FFF72BFC386108E0FFF7B9
:1009AC0027FC02463B69D31A022B01D9032341E1F0
:1009BC000C4B5B6A03F00203002BF0D0012000F01B
:1009CC00A3FA1BE0094B00221A60FFF711FC3861F7
:1009DC000EE0FFF70DFC02463B69D31A022B07D938
:1009EC00032327E1001002400000424280044242EF
:1009FC00924B5B6A03F00203002BEAD17B681B6805
:100A0C0003F00403002B00F0A6800023FB758B4B36
:100A1C00DB6903F08053002B0DD1884A874BDB69CF
:100A2C0043F08053D361854BDB6903F08053FB604B
:100A3C00FB680123FB75824B1B6803F48073002B4E
:100A4C0018D17F4A7E4B1B6843F480731360FFF709
:100A5C00CFFB386108E0FFF7CBFB02463B69D31AAA
:100A6C00642B01D90323E5E0754B1B6803F48073F9
:100A7C00002BF0D07B68DB68012B06D16F4A6F4BE3
:100A8C001B6A43F0010313622DE07B68DB68002BCB
:100A9C000CD16A4A694B1B6A23F001031362674A43
:100AAC00664B1B6A23F0040313621CE07B68DB6853
:100ABC00052B0CD1614A614B1B6A43F00403136292
:100ACC005E4A5E4B1B6A43F0010313620BE05B4A08
:100ADC005A4B1B6A23F001031362584A574B1B6A8B
:100AEC0023F0040313627B68DB68002B15D0FFF73F
:100AFC007FFB38610AE0FFF77BFB02463B69D31AA8
:100B0C0041F28832934201D9032393E04B4B1B6A89
:100B1C0003F00203002BEED014E0FFF769FB386101
:100B2C000AE0FFF765FB02463B69D31A41F28832B3
:100B3C00934201D903237DE0404B1B6A03F002036F
:100B4C00002BEED1FB7D012B05D13C4A3B4BDB69E5
:100B5C0023F08053D3617B68DB69002B69D0374B62
:100B6C005B6803F00C03082B61D07B68DB69022BFC
:100B7C0046D1344B00221A60FFF73AFB386108E08B
:100B8C00FFF736FB02463B69D31A022B01D903232C
:100B9C0050E02A4B1B6803F00073002BF0D17B68EC
:100BAC001B6AB3F5803F08D12449244B5B6823F4BE
:100BBC0000327B689B6813434B6020481F4B5B687B
:100BCC0023F474127B68196A7B685B6A0B431343CA
:100BDC0043601C4B01221A60FFF70AFB386108E0E6
:100BEC00FFF706FB02463B69D31A022B01D90323FC
:100BFC0020E0124B1B6803F00073002BF0D018E0C0
:100C0C00104B00221A60FFF7F3FA386108E0FFF787
:100C1C00EFFA02463B69D31A022B01D9032309E0F0
:100C2C00064B1B6803F00073002BF0D101E001238D
:100C3C0000E0002318461837BD4680BD0010024066
:100C4C00007000406000424280B584B000AF786014
:100C5C0039600023FB60724B1B6803F007023B6892
:100C6C009A4210D26E496E4B1B6823F007023B6808
:100C7C0013430B606A4B1B6803F007023B689A42F4
:100C8C0001D00123C8E07B681B6803F00203002B32
:100C9C0008D06449634B5B6823F0F0027B689B6867
:100CAC0013434B607B681B6803F00103002B6AD075
:100CBC007B685B68012B07D15A4B1B6803F400332C
:100CCC00002B15D10123A7E07B685B68022B07D1B1
:100CDC00544B1B6803F00073002B09D101239BE0DC
:100CEC00504B1B6803F00203002B01D1012393E04E
:100CFC004C494C4B5B6823F003027B685B681343E5
:100D0C004B60FFF775FAF8607B685B68012B12D1BA
:100D1C000AE0FFF76DFA0246FB68D31A41F28832FB
:100D2C00934201D9032377E03E4B5B6803F00C033D
:100D3C00042BEED127E07B685B68022B1DD10AE007
:100D4C00FFF756FA0246FB68D31A41F288329342F7
:100D5C0001D9032360E0334B5B6803F00C03082BD1
:100D6C00EED110E0FFF744FA0246FB68D31A41F2C9
:100D7C008832934201D903234EE02A4B5B6803F07F
:100D8C000C03002BEED1264B1B6803F007023B68CB
:100D9C009A4210D92249224B1B6823F007023B6868
:100DAC0013430B601E4B1B6803F007023B689A420F
:100DBC0001D0012330E07B681B6803F00403002B97
:100DCC0008D01849174B5B6823F4E0627B68DB683A
:100DDC0013434B607B681B6803F00803002B09D09E
:100DEC001049104B5B6823F460527B681B69DB0075
:100DFC0013434B6000F01CF801460A4B5B681B095F
:100E0C0003F00F03084AD35C21FA03F3074A13607B
:100E1C000020FFF7ABF9002318461037BD4680BD04
:100E2C000020024000100240F01E000820000020AC
:100E3C0090B48AB000AF2A4B3C1D0FCB84E80F0056
:100E4C00284B1B883B800023FB610023BB610023E4
:100E5C007B6200237B6100233B62234B5B68FB615D
:100E6C00FB6903F00C03042B02D0082B03D02DE0FC
:100E7C001E4B3B622DE0FB699B0C03F00F0307F14B
:100E8C002802134413F8243C7B61FB6903F4803380
:100E9C00002B13D0144B5B685B0C03F0010307F1C0
:100EAC002802134413F8283CBB617B690F4A02FBF0
:100EBC0003F2BB69B2FBF3F37B6204E07B690C4A7F
:100ECC0002FB03F37B627B6A3B6202E0074B3B62F3
:100EDC0000BF3B6A18462837BD4690BC704700BF20
:100EEC00CC1E0008DC1E00080010024000127A0024
:100EFC0000093D0080B400AF024B1B681846BD468C
:100F0C0080BC70472000002080B485B000AF7860B2
:100F1C000A4B1B680A4AA2FB03235B0A7A6802FB92
:100F2C0003F3FB6000BFFB685A1EFA60002BF9D17B
:100F3C0000BF1437BD4680BC704700BF20000020A6
:100F4C00D34D621080B582B000AF78607B68002B07
:100F5C0001D101231DE07B6893F83D30DBB2002BFF
:100F6C0006D17B68002283F83C20786800F08CFE68
:100F7C007B68022283F83D207B681A687B68043307
:100F8C001946104600F054FA7B68012283F83D2084
:100F9C00002318460837BD4680BD80B483B000AF2F
:100FAC0078607B681B687A681268D26842F001022C
:100FBC00DA607B681B687A681268126842F001027A
:100FCC001A60002318460C37BD4680BC704780B4AD
:100FDC0083B000AF78607B681B687A681268D2684F
:100FEC0022F00102DA607B681B681A6A41F2111365
:100FFC001340002B0FD17B681B681A6A40F24443E4
:10100C001340002B07D17B681B687A681268126842
:10101C0022F001021A60002318460C37BD4680BC32
:10102C00704780B582B000AF78607B681B681B6925
:10103C0003F00203022B22D17B681B68DB6803F0F0
:10104C000203022B1BD17B681B686FF002021A6132
:10105C007B6801221A777B681B689B6903F003038A
:10106C00002B03D0786800F0C8F905E0786800F030
:10107C00BBF9786800F0CAF97B6800221A777B68A4
:10108C001B681B6903F00403042B22D17B681B68CB
:10109C00DB6803F00403042B1BD17B681B686FF027
:1010AC0004021A617B6802221A777B681B689B69B1
:1010BC0003F44073002B03D0786800F09EF905E030
:1010CC00786800F091F9786800F0A0F97B6800224C
:1010DC001A777B681B681B6903F00803082B22D165
:1010EC007B681B68DB6803F00803082B1BD17B684B
:1010FC001B686FF008021A617B6804221A777B6800
:10110C001B68DB6903F00303002B03D0786800F045
:10111C0074F905E0786800F067F9786800F076F902
:10112C007B6800221A777B681B681B6903F010032D
:10113C00102B22D17B681B68DB6803F01003102B8B
:10114C001BD17B681B686FF010021A617B68082248
:10115C001A777B681B68DB6903F44073002B03D0A0
:10116C00786800F04AF905E0786800F03DF9786895
:10117C0000F04CF97B6800221A777B681B681B69AE
:10118C0003F00103012B0ED17B681B68DB6803F0B5
:10119C000103012B07D17B681B686FF001021A61F8
:1011AC00786800F0D7FA7B681B681B6903F0800332
:1011BC00802B0ED17B681B68DB6803F08003802BCF
:1011CC0007D17B681B686FF080021A61786800F0A9
:1011DC0087FA7B681B681B6903F04003402B0ED118
:1011EC007B681B68DB6803F04003402B07D17B68EE
:1011FC001B686FF040021A61786800F010F97B6888
:10120C001B681B6903F02003202B0ED17B681B6825
:10121C00DB6803F02003202B07D17B681B686FF081
:10122C0020021A61786800F052FA00BF0837BD46F8
:10123C0080BD80B584B000AF786039600023FB605E
:10124C007B6893F83C30012B01D10223C8E07B680A
:10125C00012283F83C207B68022283F83D207B68C6
:10126C001B689B68FB60FB6823F07703FB60FB68E3
:10127C0023F47F43FB607B681B68FA689A603B68C9
:10128C001B68402B77D0402B0ED8102B00F08A8097
:10129C00102B02D8002B7ED099E0202B00F08980F7
:1012AC00302B00F08D8092E0702B16D0702B04D870
:1012BC00502B40D0602B4ED089E0B3F5805F03D02B
:1012CC00B3F5005F24D082E07B681B687A681268F3
:1012DC00926822F007029A6079E07B6818683B6894
:1012EC0099683B685A683B68DB6800F08BF97B684F
:1012FC001B689B68FB60FB6823F07703FB60FB6853
:10130C0043F07703FB607B681B68FA689A605EE0C9
:10131C007B6818683B6899683B685A683B68DB686F
:10132C0000F070F97B681B687A681268926842F466
:10133C0080429A604BE07B6818683B6859683B6850
:10134C00DB681A4600F0DAF87B681B6850211846F7
:10135C0000F039F93BE07B6818683B6859683B68DA
:10136C00DB681A4600F0FCF87B681B6860211846A5
:10137C0000F029F92BE07B6818683B6859683B68DA
:10138C00DB681A4600F0BAF87B681B6840211846E7
:10139C0000F019F91BE07B681B680021184600F06F
:1013AC0012F914E07B681B681021184600F00BF949
:1013BC000DE07B681B682021184600F004F906E05C
:1013CC007B681B683021184600F0FDF800BF7B6875
:1013DC00012283F83D207B68002283F83C20002307
:1013EC0018461037BD4680BD80B483B000AF78601E
:1013FC0000BF0C37BD4680BC704780B483B000AFD3
:10140C00786000BF0C37BD4680BC704780B483B099
:10141C0000AF786000BF0C37BD4680BC704780B40D
:10142C0083B000AF786000BF0C37BD4680BC7047FE
:10143C0080B485B000AF786039600023FB607B68B6
:10144C001B68FB607B682A4A93420BD07B68B3F124
:10145C00804F07D07B68274A934203D07B68264A8B
:10146C00934208D1FB6823F07003FB603B685B6818
:10147C00FA681343FB607B681D4A93420BD07B6870
:10148C00B3F1804F07D07B681A4A934203D07B6834
:10149C00194A934208D1FB6823F44073FB603B6804
:1014AC00DB68FA681343FB60FB6823F08003FB6086
:1014BC003B685B69FA681343FB607B68FA681A60E7
:1014CC003B689A687B68DA623B681A687B689A6248
:1014DC007B68074A934203D13B681A697B681A639D
:1014EC007B6801225A6100BF1437BD4680BC70472F
:1014FC00002C0140000400400008004080B487B07C
:10150C0000AFF860B9607A6000237B6100233B6117
:10151C00FB681B6A3B61FB681B6A23F00102FB68DA
:10152C001A62FB689B697B617B6923F0F0037B612A
:10153C007B681B017A6913437B613B6923F00A03C7
:10154C003B613A69BB6813433B61FB687A699A61FA
:10155C00FB683A691A6200BF1C37BD4680BC7047F5
:10156C0080B487B000AFF860B9607A6000237B610B
:10157C0000233B61FB681B6A23F01002FB681A62B4
:10158C00FB689B697B61FB681B6A3B617B6923F48D
:10159C0070437B617B681B037A6913437B613B69F6
:1015AC0023F0A0033B61BB681B013A6913433B6109
:1015BC00FB687A699A61FB683A691A6200BF1C374A
:1015CC00BD4680BC704780B485B000AF78600B46D8
:1015DC007B800023FB607B689B68FB60FB6823F0CF
:1015EC007003FB607B8843F007039BB21A46FB68D1
:1015FC001343FB607B68FA689A6000BF1437BD46E2
:10160C0080BC704780B487B000AFF860B9607A6076
:10161C003B6000237B61FB689B687B617B6923F4E7
:10162C007F437B613B681A027B681A43BB68134398
:10163C007A6913437B61FB687A699A6000BF1C3737
:10164C00BD4680BC704780B483B000AF7860396011
:10165C007B6893F83C30012B01D1022332E07B688C
:10166C00012283F83C207B68022283F83D207B68B2
:10167C001B687A681268526822F070025A607B68A4
:10168C001B687A68126851683A6812680A435A6093
:10169C007B681B687A681268926822F080029A60F4
:1016AC007B681B687A68126891683A6852680A43CA
:1016BC009A607B68012283F83D207B68002283F8C6
:1016CC003C20002318460C37BD4680BC704780B4C4
:1016DC0083B000AF786000BF0C37BD4680BC70474C
:1016EC0080B483B000AF786000BF0C37BD4680BCBF
:1016FC007047000080B500AF08210348FFF710F8D1
:10170C000346184680BD00BF000C014080B582B076
:10171C0000AF0346FB71FB791A464FF48051034826
:10172C00FFF715F800BF0837BD4680BD000C01401F
:10173C0080B582B000AF0346FB71FB791A464FF4BB
:10174C0000510348FFF703F800BF0837BD4680BDC2
:10175C00000C014080B584B000AF78607B681B68DA
:10176C00164A93421BD1164B1B68013BFB600BE0E6
:10177C00FB68013B134AD15C124AFB6813440A46CE
:10178C001A70FB68013BFB60FB68002BF0DC10213E
:10179C000D48FEF7C5FF03461A460A4B1A707B68C4
:1017AC001B68B3F1804F05D10848FFF710FC084BBC
:1017BC0001221A7000BF1037BD4680BD002C0140BD
:1017CC000800002010000020000C014084000020C4
:1017DC001900002080B485B000AF0023FB6000230B
:1017EC00BB60184B1B68013B7B6015E0164A7B689D
:1017FC0013441B78012B03D1FB680133FB6008E019
:10180C00114A7B6813441B78002B02D1BB6801334F
:10181C00BB607B68013B7B607B68002BE6DAFA6877
:10182C00BB689A4201DD012306E0BA68FB689A4264
:10183C0001DD002300E0012318461437BD4680BCAF
:10184C00704700BF080000201000002080B582B057
:10185C0000AF3D4B1B68013B7B6007E03B4A7B685C
:10186C00134401221A707B68013B7B607B68002B60
:10187C00F4DCFEF765FC00F077F800F05DF900F0A1
:10188C00BBF800F009F93248FFF787FB3148FFF746
:10189C0084FB3048FFF79BFB2E4B1B6800225A62DF
:1018AC00FFF798FF03461A462B4B1A70FFF792FF6F
:1018BC000346002B02D1294B00221A70FFF71AFFA6
:1018CC000346002B02D1264B00221A70224B1B78A8
:1018DC00012B12D1234B1B78002B0ED11D4B1B68F7
:1018EC005B6A002B06D01B48FFF771FB194B1B687A
:1018FC0000225A621748FFF750FBFFF76BFF0346B5
:10190C00012B07D1FFF7F6FE0346012B02D1144B36
:10191C0001221A70124B1B78002B03D00F4B1B7833
:10192C00002B06D10020FFF7F1FE0020FFF700FF8F
:10193C0005E00120FFF7EAFE0120FFF7F9FE064B58
:10194C001A78084B1A70ABE7080000201000002032
:10195C0044000020840000201A0000201900002000
:10196C001C0000201B00002080B590B000AF0223AB
:10197C00BB610123BB621023FB6200237B6307F175
:10198C0018031846FEF7FCFE0346002B03D0F0218B
:10199C00174800F015F90F237B600023BB60002370
:1019AC00FB6000233B6100237B613B1D002118463B
:1019BC00FFF74AF90346002B03D0FE210C4800F038
:1019CC00FFF8FFF797FA02460A4BA3FB02239B0989
:1019DC001846FEF712FD0420FEF71CFD0022002124
:1019EC004FF0FF30FEF7DFFC00BF4037BD4680BD37
:1019FC00E01E0008D34D621080B586B000AF234BBB
:101A0C00234A1A60214B4FF4FA525A601F4B0022A2
:101A1C009A601E4B0922DA601C4B00221A611B4B88
:101A2C0000225A61194B00229A611848FFF78AFA72
:101A3C000346002B04D040F21D11164800F0C0F8EC
:101A4C004FF48053BB6007F1080319460F48FFF7AA
:101A5C00F0FB0346002B04D040F223110D4800F09C
:101A6C00AFF800233B6000237B603B4619460748D8
:101A7C00FFF7E9FD0346002B04D04FF495710548A0
:101A8C0000F09EF800BF1837BD4680BD4400002012
:101A9C00002C0140E01E000880B586B000AF234B3F
:101AAC004FF080421A60214B4FF4FA525A601F4B90
:101ABC0000229A601E4B1B681A461C4BDA601B4BAB
:101ACC0000221A61194B00229A611848FFF73AFA62
:101ADC000346002B04D04FF49F71164800F070F8A9
:101AEC004FF48053BB6007F1080319460F48FFF70A
:101AFC00A0FB0346002B04D04FF4A2710D4800F05C
:101B0C005FF800233B6000237B603B461946074887
:101B1C00FFF799FD0346002B04D040F24B1105480A
:101B2C0000F04EF800BF1837BD4680BD8400002081
:101B3C000C000020E01E000880B586B000AF1E4AE5
:101B4C001D4B9B6943F0080393611B4B9B6903F08E
:101B5C0008037B607B68184A174B9B6943F00403AE
:101B6C009361154B9B6903F004033B603B680122B6
:101B7C004FF440511148FEF7EAFD4FF44053BB605F
:101B8C000123FB6001233B6102237B6107F1080306
:101B9C0019460A48FEF766FC1823BB600023FB605D
:101BAC0001233B6107F1080319460448FEF75AFC70
:101BBC0000BF1837BD4680BD00100240000C01402C
:101BCC0080B483B000AF78603960FEE780B584B034
:101BDC0000AF2B4A2A4B9B6943F001039361284BBE
:101BEC009B6903F00103BB60BB68254A244BDB698E
:101BFC0043F08053D361224BDB6903F080537B604D
:101C0C007B680320FEF7C4FB002200216FF00B0061
:101C1C00FEF7C9FB002200216FF00A00FEF7C3FBA0
:101C2C00002200216FF00900FEF7BDFB002200210D
:101C3C006FF00400FEF7B7FB002200216FF00300E9
:101C4C00FEF7B1FB002200216FF00100FEF7ABFBA9
:101C5C00002200214FF0FF30FEF7A5FB094B5B681B
:101C6C00FB60FB6823F0E063FB60FB6843F00073F0
:101C7C00FB60044AFB68536000BF1037BD4680BD53
:101C8C00001002400000014080B584B000AF7860C5
:101C9C007B681B681E4A93421CD11E4A1D4B9B69D4
:101CAC0043F4006393611B4B9B6903F40063FB607B
:101CBC00FB68002200211820FEF775FB1820FEF7A8
:101CCC008EFB002200211920FEF76DFB1920FEF778
:101CDC0086FB18E07B681B68B3F1804F13D10D4A6B
:101CEC000C4BDB6943F00103D3610A4BDB6903F056
:101CFC000103BB60BB68002200211C20FEF753FBD4
:101D0C001C20FEF76CFB00BF1037BD4680BD00BF2A
:101D1C00002C01400010024080B400AF00BFBD4653
:101D2C0080BC704780B400AFFEE780B400AFFEE724
:101D3C0080B400AFFEE780B400AFFEE780B400AF24
:101D4C0000BFBD4680BC704780B400AF00BFBD462D
:101D5C0080BC704780B400AF00BFBD4680BC7047EC
:101D6C0080B500AFFEF732FAFEF770FB00BF80BD06
:101D7C0080B500AF0248FFF754F900BF80BD00BF2B
:101D8C004400002080B500AF0248FFF74AF900BFBD
:101D9C0080BD00BF4400002080B500AF0248FFF7B3
:101DAC0040F900BF80BD00BF8400002080B400AFAC
:101DBC00154A154B1B6843F0010313601249124B73
:101DCC005A68124B13404B600F4A0F4B1B6823F0A1
:101DDC00847323F4803313600B4A0B4B1B6823F47E
:101DEC0080231360084A084B5B6823F4FE0353609E
:101DFC00054B4FF41F029A60054B4FF000629A603E
:101E0C0000BFBD4680BC7047001002400000FFF8C8
:101E1C0000ED00E0002103E00B4B5B584350043114
:101E2C000A480B4B42189A42F6D30A4A02E00023A6
:101E3C0042F8043B084B9A42F9D3FFF7B7FF00F086
:101E4C000FF8FFF703FD7047081F00080000002083
:101E5C002400002024000020C4000020FEE7000025
:101E6C0070B500250C4E0D4CA41BA410A54209D135
:101E7C0000F01AF800250A4E0A4CA41BA410A54227
:101E8C0005D170BD56F8253098470135EEE756F868
:101E9C00253098470135F2E7001F0008001F0008A5
:101EAC00001F0008041F0008F8B500BFF8BC08BCF0
:101EBC009E467047F8B500BFF8BC08BC9E467047FC
:101ECC0002030405060708090A0B0C0D0E0F10106F
:101EDC00010200002E2E5C5372635C6D61696E2EE4
:101EEC006300000000000000000000000102030479
:041EFC0006070809C4
:041F000031010008A3
:041F04000D010008C3
:101F0800100000000100000009000000973A0000DE
:101F180001000000000000000001010101000000B4
:041F280000A24A04C5
:0400000508001E21B0
:00000001FF
